:1000000018C1000032C1000030C100002EC1000044
:100010002CC100002AC1000028C1000026C1000038
:1000200024C1000022C1000020C100000C94EF1484
:100030001CC100001AC1000018C10000ACC70000BC
:1000400014C1000012C1000010C100009EC10000D8
:100050000CC100000AC1000008C1000006C1000078
:1000600004C1000002C1000000C10000FEC0000089
:10007000FCC000001C0330003000300032003000B3
:100080003000300031003200330034003500000011
:100090000000180341005600520049005300500070
:1000A00020006D006B004900490000000C03410076
:1000B00054004D0045004C000000040309040902EF
:1000C0002000010100C0320904000002FF0000000E
:1000D0000705820240000A0705020240000A1201D9
:1000E0001001FF000010EB030421000201020301D4
:1000F00009000A000A000B000C000D000D000E00A4
:100100000F0010001000120013001300140016005E
:100110001600180019001A001C001D001F00200006
:10012000220023002500270029002B002E0030008C
:100130003200340037003A003D00400043004600E2
:100140004A004E00520055005A005E0063006800ED
:100150006D00730078007E0084008B009100990090
:10016000A000A900B100B900C300CC00D600E10096
:10017000EC00F700040111011E012D013B014B01B0
:100180005B016C017D019101A501BA01CF01E6017E
:10019000FE01160231024C026A028802A802CA025B
:1001A000ED021103380360038B03B803E70318045F
:1001B0004B048104B904F50434057505B90501063D
:1001C0004E069D06EF064807A30704086508D008F9
:1001D0004009B6092B0AAB0A300BC30B510CEE0CCD
:1001E0008F0D400EF60EAF0F681047111412F51266
:1001F000ED13E214F015F9161B185C19911AE51BA2
:10020000251D831E0320AB21302332250F27F12823
:10021000F82A1A2D492FA1311434A1364539173C3B
:100220001A3F34426045DF48704C40004101424370
:10023000030011241FBECFEFD2E0DEBFCDBF11E01F
:10024000A0E0B1E0EAE9FDE202C005900D92A2361D
:10025000B107D9F721E0A2E6B1E001C01D92AD37A8
:10026000B207E1F747D00C94CB16CACE95B19F7177
:10027000892B85B9089584B7877F84BF0FB6F8941A
:10028000A895809160008861809360001092600062
:100290000FBE90E080E80FB6F894809361009093D1
:1002A00061000FBE84B1806E84B985B18F7185B94C
:1002B0000C94E01480ECDACF80E4D8CF42E360E81D
:1002C00082E00E944914811102C080E401C080E8EC
:1002D000CDCF8EB3843069F40DD282E08093E900F3
:1002E0008091E80082FF05C080ECC0DF6BD080E821
:1002F000BDCF0895C0DF5ED080E4B8DF7894489920
:1003000002C080E201C080E095B19F7D892B85B954
:10031000E0DF0E949816F3CF00C0292F3327223048
:10032000310559F02330310569F02130310529F5C7
:1003300082E190E02EED30E024C080E290E02EEBF0
:1003400030E01FC099278130910571F050F0823064
:10035000910569F0039789F48CE190E024E730E09F
:1003600010C0EAEBF0E005C0ECEAF0E002C0E2E920
:10037000F0E0849190E09F0104C080E090E020E0F4
:1003800030E0FA0131832083089578941F920F9210
:100390000FB60F9211248F938AB5882321F08AB566
:1003A00081508ABD01C015BC8F910F900FBE0F9078
:1003B0001F9018958BE987BD82E084BD80936E0005
:1003C0007ED117C61F93CF93DF93C091F10084E6CF
:1003D0008ABD85E085BDCD3109F42CC108F03EC051
:1003E000C33109F41EC160F5C63009F4C9C048F430
:1003F000C13009F47EC008F421C1C43008F496C0AD
:100400001DC1C03109F409C198F4CA3009F016C100
:100410008091E8008B778093E80082E08093E90088
:100420008091EC0081608093EC00C093F100CDC01E
:10043000C13109F4F4C0C23109F000C15FD521C156
:10044000C73109F4F4C020F4C53109F0EDC0E9C0AA
:10045000C93109F4ECC08C2F65D313C1C83309F43A
:10046000D0C0E8F4C33309F4B9C058F4C13309F477
:10047000AFC008F0B0C0C03309F0E0C00E94A60FC2
:1004800000C1C53309F4B7C008F4C4C0C63309F4C9
:10049000B5C0C73309F0D2C00E948410A2C0C135D4
:1004A00009F4CAC098F4C03409F4AEC030F4C933BA
:1004B00009F0C4C00E949412E4C0C13409F4A7C07A
:1004C000C03509F0BBC00E947F0ADBC0C63509F405
:1004D0008CC030F4C53509F0B1C00E94991081C0BC
:1004E000C73509F485C0C83509F0A8C00E947F103F
:1004F00078C08091E8008B778093E80082E0809359
:10050000E9008091EC0081608093EC00C093F100E1
:100510001092F1008AE08093F10040E050E06AE040
:1005200070E087E591E00E940C13A6C0D091F10025
:10053000C23011F41091F1008091E8008B77809324
:10054000E80082E08093E9008091EC008160809374
:10055000EC00C093F1008D2FCED0C23041F481FF6A
:100560000DC01092F100612F8D2FD5D085C080FF76
:1005700005C01092F1008D2FC6D07CC080EC7AC0EF
:1005800040E050E064E070E08EE691E00E94A0134D
:100590008091E8008B778093E80082E08093E90007
:1005A0008091EC0081608093EC0080916E019091CD
:1005B0006F01A0917001B0917101B7FF03C081E09C
:1005C00080936D0186E08093F1001092F10054C099
:1005D0000E94C30F56C00E94E00F53C00E94251016
:1005E00050C08091E8008B774AC00E94CE1149C06C
:1005F0000E94AE1146C00E94051143C00E944E11D8
:1006000040C00E9452123DC00E94F3123AC00E94A4
:100610003E1237C00E948F0F34C0BDD332C03AD4CF
:1006200030C08C2FB4D02DC08C2FDFD12AC08C2F9E
:10063000D4D227C018D325C031D723C08091F2006F
:10064000803441F48091E8008B778093E8000E9429
:100650007A14F4CF8091E8008B778093E80082E0F1
:100660008093E9008091EC0081608093EC00C0935E
:10067000F10089EC8093F1008091E8008E778093FF
:10068000E80015BC0E947A1482E08093E900809112
:10069000EC008E7F8093EC00DF91CF911F91089545
:1006A000E0E0F1E09081981741F0339691E0EE316F
:1006B000F907C1F780E090E00895CF010895CF9346
:1006C000DF9381E090E00E94B116D82F80E090E0A7
:1006D0000E94B116C82FDF3F21F08EE9E1DFFC0157
:1006E000D283CF3F21F088E9DBDFFC01C283DF91B9
:1006F000CF9108950895D4DF009719F0FC0181810E
:10070000089580E00895CCDF009719F0FC01828104
:10071000089580E00895CF93DF93D82FC62FC0DFD0
:10072000009789F0FC01C283DE3921F46C2F81E04F
:1007300090E005C0D83939F46C2F80E090E0DF916B
:10074000CF910C94B916DF91CF91089590911E012D
:10075000992331F08EBD0DB407FEFDCF8EB50895FF
:10076000A9C490911E01992329F08EBD0DB407FEF6
:10077000FDCF08959FC480911E01882331F01EBCD7
:100780000DB407FEFDCF8EB5089580E093C42F927F
:100790003F924F925F926F927F928F929F92AF9211
:1007A000BF92CF92DF92EF92FF920F931F93CF935E
:1007B000DF93CDB7DEB7C950D1400FB6F894DEBF96
:1007C0000FBECDBF182F40E050E069E070E0CE01D1
:1007D00001963C010E9456136A8179817A8369836C
:1007E000613091E0790788F08091E8008B77809301
:1007F000E80082E08093E9008091EC0081608093C2
:10080000EC001093F10080ECCFC040E050E0CE014E
:100810000A960E94561389819A810A968F739927A6
:10082000892B39F48091E8008B778093E8000E944F
:100830007A148091E8008B778093E80082E08093BF
:10084000E9008091EC0081608093EC00133111F499
:10085000C88401C0C98450906E0140906F0153015B
:10086000E12CF12C88E0382E2224239445018618AF
:10087000970889819A818816990608F065C0F50164
:100880000185DB8080916D01882319F066D4109278
:100890006D018D8166DF80916F0163DF80916E0154
:1008A00060DF802F5EDF133119F48D8183258D8306
:1008B000E114F10479F4C01669F08F8180FE04C060
:1008C000133111F4886001C0877F8F83E0906E013F
:1008D000F0906F01D0FC13C0E114F10431F4D3FCAB
:1008E00004C08D2D897F8260D82E0F812C814C2DE4
:1008F000B7018D2D3BD4811128C0E12CF12C80FC57
:1009000002C01531E9F480916E0190916F01A091C0
:100910007001B09171010196A11DB11D80936E010E
:1009200090936F01A0937001B0937101133141F462
:10093000AA27BB27892B8A2B8B2B11F420926D01C0
:10094000FFEFAF1ABF0A92CF80E09B8197FF2AC0CA
:100950008E8107DF842D05DF852D03DF80E001DF39
:100960008B8185FF06C0E114F10419F48F7C80614E
:100970008B830F812C814C2DB7018B81F7D31331E1
:1009800089F440916E0150916F01609170017091F6
:10099000710166277727452B462B472B19F491E0E9
:1009A00090936D011093F1008093F1008091E80025
:1009B0008E778093E800C75FDE4F0FB6F894DEBFF6
:1009C0000FBECDBFDF91CF911F910F91FF90EF90A0
:1009D000DF90CF90BF90AF909F908F907F906F905F
:1009E0005F904F903F902F900895DF92EF92FF928B
:1009F0000F931F93CF93DF9300D01F92CDB7DEB735
:100A0000F82E40E050E063E070E0CE0101960E94D5
:100A1000561389819A8199838A838091E8008B7724
:100A20008093E80082E08093E9008091EC0081608F
:100A30008093EC00F092F1001092F10000E010E0E1
:100A400088E0E82EDD24D39489819A81081719075C
:100A500008F049C080916D01882319F07ED310926F
:100A60006D018B817EDE80916F017BDE80916E0156
:100A700078DE81DE8093F1008091E80085FD07C07B
:100A80008091E8008E778093E8000E947A1424E138
:100A9000F21203C08B818E258B8300FD03C086E19B
:100AA000F8121EC080916E0190916F01A0917001AB
:100AB000B09171010196A11DB11D80936E019093BB
:100AC0006F01A0937001B093710126E1F21641F01D
:100AD000AA27BB27892B8A2B8B2B11F4D0926D016F
:100AE0000F5F1F4FB1CF1092F1009091E8008091FD
:100AF000E8008E778093E80095FD09C00E947A1483
:100B00008091E8008E778093E8000E947A140F901D
:100B10000F900F90DF91CF911F910F91FF90EF9069
:100B2000DF900895AF92BF92DF92EF92FF920F9302
:100B30001F93CF93DF93CDB7DEB729970FB6F89405
:100B4000DEBF0FBECDBFD82E40E050E065E070E0C4
:100B5000CE0101960E9456138091E8008B77809316
:100B6000E80082E08093E9008091EC00816080934E
:100B7000EC008E010E5F1F4F7E0186E0E80EF11C37
:100B80005701F80181918F01E1DDF70181937F0128
:100B90000A151B05B1F7D092F1001092F10089817E
:100BA000FE01E80FF11D85818093F1001092F100A4
:100BB0008091E8008E778093E80029960FB6F8942C
:100BC000DEBF0FBECDBFDF91CF911F910F91FF9080
:100BD000EF90DF90BF90AF900895CF92DF92FF9299
:100BE0000F931F93CF93DF9300D000D0CDB7DEB724
:100BF000F82E40E050E064E070E0CE0101960E94E3
:100C000056138091E8008B778093E80082E0809310
:100C1000E9008091EC0081608093EC008E010F5F11
:100C20001F4F6E0185E0C80ED11CF80181918F0124
:100C300098DD0C151D05C9F7F092F1001092F10036
:100C40001092F1008091E8008E778093E8000F9079
:100C50000F900F900F90DF91CF911F910F91FF9008
:100C6000DF90CF900895FF920F931F93CF93DF9360
:100C7000CDB7DEB7C250D1400FB6F894DEBF0FBE7D
:100C8000CDBF40E050E063E070E0CE0101960E94ED
:100C90005613698170E040E050E0CE0104960E9456
:100CA00056138091E8008B778093E80082E0809370
:100CB000E9008091EC0081608093EC008DE18093ED
:100CC000F1001092F10010E08B81181778F48981FF
:100CD000181740F4E4E0F0E0EC0FFD1FE10FF11D08
:100CE000808101C080E03DDD1F5FEECF00E08A81A2
:100CF000081710F58981181778F4FF24F394F10E82
:100D0000E4E0F0E0EC0FFD1FE10FF11D80811EDD3E
:100D10008093F1001F2D03C02EDD8093F1008091A0
:100D2000E80085FD07C08091E8008E778093E80099
:100D30000E947A140F5FDBCF1092F1009091E800CF
:100D40008091E8008E778093E80095FD09C00E94AD
:100D50007A148091E8008E778093E8000E947A14DC
:100D6000CE5FDE4F0FB6F894DEBF0FBECDBFDF9172
:100D7000CF911F910F91FF900895882359F09AB554
:100D80008150992339F0EFE9FFE03197F1F700C086
:100D90000000F3CF0895CF92DF92EF92FF920F936E
:100DA0001F93CF93DF93CDB7DEB72F970FB6F8948D
:100DB000DEBF0FBECDBF40E050E06BE070E0CE0183
:100DC00001960E9456138091E8008B778093E8008B
:100DD00082E08093E9008091EC0081608093EC00D8
:100DE00010926E0110926F011092700110927101B9
:100DF0008B81C3DF38D181E086D18A81BEDF8C81CF
:100E00009FEF980F9C83882359F18AB5882341F17D
:100E10007E01F8E0EF0EF11C8E01045F1F4F6801A8
:100E20008D81ABDFF70181917F0190DCF801819327
:100E30008F01EC14FD04A1F78F81882351F0EBE0C2
:100E4000F0E0EC0FFD1FE80FF11D90818E819813EB
:100E500002C080E006C080E056D18A818EDFCBCF11
:100E600080EC90E19093F1008093F1008091E80094
:100E70008E778093E8002F960FB6F894DEBF0FBEF2
:100E8000CDBFDF91CF911F910F91FF90EF90DF9039
:100E9000CF9008950F931F93CF93DF9300D0CDB7DA
:100EA000DEB740E050E062E070E0CE0101960E94C3
:100EB000561308EE10E0F80180818B77808382E082
:100EC0008093E900ECEEF0E080818160808389818D
:100ED00054DF80E018D19BD08A814FDFE1EFF0E052
:100EE00081E180831082F80180818E7780830F906A
:100EF0000F90DF91CF911F910F910895EF92FF9284
:100F00000F931F93CF93DF9300D000D000D0CDB7C5
:100F1000DEB740E050E066E070E0CE0101960E944E
:100F200056138091E8008B778093E80082E08093ED
:100F3000E9008091EC0081608093EC008E010D5FF0
:100F40001F4F7E0187E0E80EF11CF80181918F01AF
:100F500008DC0E151F05C9F78A81811104C089813B
:100F60000CDF80E001C0DBD092E19093F100809330
:100F7000F1008091E8008E778093E80026960FB606
:100F8000F894DEBF0FBECDBFDF91CF911F910F91BF
:100F9000FF90EF9008951F920F920FB60F921124B9
:100FA0008F93199908C08091630187FF02C02A9A24
:100FB00019C02A9817C080916301880F809363013C
:100FC00080916201815080936201811104C010926E
:100FD000810082E086BB1B9B05C08091630181601C
:100FE00080936301199A8F910F900FBE0F901F90FD
:100FF0001895559A81E090E09093CD008093CC00B5
:1010000088E08093C9008FE68093CA00089580919C
:101010001E01882349F084B1897F84B985B1867F18
:1010200085B91CBC1DBC089584B1897F84B985B184
:10103000867F85B9DECF92E090936F001092850095
:1010400010928400E82FF0E0EE0FFF1FEE51FF4FEB
:1010500085919491909389008093880010928000EC
:1010600010928100089588E94EDB8730D0F491E03A
:1010700090931E01E82FF0E0E65DFD4FE491209A89
:10108000289A84B1866084B923982B9A8DB5E6FF9F
:1010900002C0816001C08E7F8DBD2098E065ECBDEF
:1010A000089510921E0194B1966094B995B199601B
:1010B00095B9C1CF8093630188E0809362018091EC
:1010C000630187FF02C02A9A01C02A981092850006
:1010D000109284008AE080938100809162018823CD
:1010E00019F08AB58111F9CF1092810080916301C6
:1010F000089590911E01992329F08EBD0DB407FE2D
:10110000FDCF0895D7CF882339F0249A8EE9FBDAF2
:10111000811103C02C9A089524982C98089580EF8B
:10112000E8DF80E0E6DF80E0E4DF80911E018823D5
:1011300031F01EBC0DB407FEFDCF8EB502C080E0BD
:10114000B9DF80FF03C08AB58111E9CF8AB581116B
:1011500002C081E8089580E008958DE4CADF80E050
:10116000C8DF80917001C5DF80E0C3CF0F931F936C
:10117000CF93DF93D62F172FC42F8E7790E0883030
:10118000910579F134F48230910559F00497A9F072
:101190002AC08032910589F08034910511F1409781
:1011A00011F5822FEADD1FC00DB407FEFDCF8EB50D
:1011B000C81312C08AB5882379F0802F9ADF812F57
:1011C00098DF8D2F96DF80911E01882311F01EBCC1
:1011D000EBCF80E06FDFECCF8AB5811104C080E8EF
:1011E00003C09DDF01C080E094E69ABDDF91CF91FE
:1011F0001F910F910895AF92BF92CF92DF92EF921D
:10120000FF920F931F93CF93DF93CDB7DEB7C850F4
:10121000D1400FB6F894DEBF0FBECDBF40E050E026
:1012200068E070E0CE0101960E9456138B819C818C
:101230002D813E813B832C839D838E837F816885B6
:101240006F83788740E050E0CE0109960E945613E4
:101250008F81988509968F739927892B39F480910E
:10126000E8008B778093E8000E947A148091E80070
:101270008B778093E80082E08093E9008091EC0016
:1012800081608093EC0080916401811131C02981DB
:1012900021504B815C816D817E812630A8F430E045
:1012A000F901E75CFE4F8081F901ED5CFE4F908112
:1012B000F901E35DFE4FE081D901A95DBE4F2C919C
:1012C000222309F43EC003C0E6E293E28EE2AF803F
:1012D000B8849E01275F3F4F69017A018B012A8103
:1012E000482F6E2F892F3BD481110BC083E00AC099
:1012F0004F815885BE01675F7F4F8B819C81B0D540
:10130000F3CF80E090E59093F10094E09093F100AA
:101310008093F1008091E8008E778093E800C85FA9
:10132000DE4F0FB6F894DEBF0FBECDBFDF91CF9179
:101330001F910F91FF90EF90DF90CF90BF90AF90F3
:1013400008952985E7D3D0CFCF93DF93CDB7DEB70C
:10135000C750D1400FB6F894DEBF0FBECDBF40E0FE
:1013600050E067E070E0CE018F5F9E4F0E94561301
:10137000CE5FDE4F8881C250D140CD5FDE4F988175
:10138000C350D140CC5FDE4F2881C450D140CB5FE9
:10139000DE4F3881C550D140CE5FDE4F3883C2501A
:1013A000D140CD5FDE4F2883C350D140CC5FDE4FAC
:1013B0009883C450D140CB5FDE4F8883C550D14065
:1013C000CA5FDE4F8881C650D140C95FDE4F988129
:1013D000C750D140CA5FDE4F9883C650D140C95F25
:1013E000DE4F8883C750D1408091E8008B7780938F
:1013F000E80082E08093E9008091EC0081608093B6
:10140000EC0080916401CA5FDE4F28813981C650AB
:10141000D140811112C0CE5FDE4F688179818A810F
:101420009B81C250D140AE014F5F5F4F2FD38823C5
:1014300011F080E00EC083E00CC0A901BE016F5F17
:101440007F4FCE5FDE4F88819981C250D140DBD47F
:10145000EECF90E59093F10095E09093F1008093AA
:10146000F10081110CC0CA5FDE4F68817981C650DE
:10147000D14040E050E0CE0101960E940C138091D3
:10148000E8008E778093E800C95FDE4F0FB6F894CE
:10149000DEBF0FBECDBFDF91CF910895CF93DF9315
:1014A0001F92CDB7DEB740E050E061E070E0CE01C2
:1014B00001960E9456138091E8008B778093E80094
:1014C00082E08093E9008091EC0081608093EC00E1
:1014D00089818093640181E58093F1008981813065
:1014E00011F480EC01C080E08093F1008091E8006D
:1014F0008E778093E8000F90DF91CF910895CF937E
:10150000DF9300D000D000D0CDB7DEB78091F100DE
:10151000843009F494C038F4823081F108F04BC073
:10152000813051F02CC1863009F48DC008F489C097
:10153000873009F4D2C023C18091E8008B77809373
:10154000E80082E08093E9008091EC008160809364
:10155000EC0080916401811102C017D205C0823075
:1015600011F40FD401C080E090E59093F10091E078
:101570009093F10098279093F100FCC09091E800BF
:101580009B779093E8008093E9008091EC00816064
:101590008093EC0080916401811102C031D201C0BE
:1015A00027D427DD80E58093F10082E08093F1006D
:1015B0001092F100DFC040E050E065E070E0CE0145
:1015C00001960E9456138A819B812C813D813A832A
:1015D0002B839C838D838091E8008B778093E80038
:1015E00082E08093E9008091EC0081608093EC00C0
:1015F00080916401E981811114C0E150E83028F440
:10160000F0E0E15CFE4F808101C080E04A815B81B7
:101610006C817D8116D3882311F080E00BC083E0BC
:1016200009C0E13011F084E101C080E16A817B8171
:1016300052D4F1CF90E59093F10093E097C0DBDDB9
:101640009EC082DE9CC040E050E061E070E0CE01D0
:1016500006960E9456138091E8008B778093E800ED
:1016600082E08093E9008091EC0081608093EC003F
:1016700080916401811112C08E81813031F08230FD
:1016800011F489E303C088E701C088E3BE016F5FFE
:101690007F4FC1D1811104C083E003C081E001C04C
:1016A00080E090E59093F10096E09093F1008093B4
:1016B000F10081115FC089819A81AB81BC81CD012C
:1016C000AA27BB278093F10089819A81AB81BC81D5
:1016D0008093F100892F99274BC08091F1008330CE
:1016E00041F168F48130A1F0823071F58091F10010
:1016F0009091F100909321018093220123C08430C6
:10170000E9F0853009F58091F1008091F1001AC06F
:101710008091F1009091F1002091F1003091F10061
:101720003093230120932401909325018093260177
:1017300009C08091F1008093200104C08091F100E4
:1017400080931F0180E001C081E09091E8009B77C9
:101750009093E80092E09093E9009091EC00916002
:101760009093EC0090E59093F10097E09093F10056
:101770008093F1008091E8008E778093E8002696B0
:101780000FB6F894DEBF0FBECDBFDF91CF910895A5
:101790004D99FECF4D9BFECF4D99FECF5B9A539A4C
:1017A0008091C9008F7E8093C9008091C9008860B4
:1017B0008093C90081E08093720108958091C800F0
:1017C00086FFFCCF8091C80080648093C800809120
:1017D000C900877F8093C9008091C9008061809390
:1017E000C90053985B98109272010895809172011C
:1017F0008111E4DF80EC8093C8001092C900109240
:10180000CA008AB1877D8AB98BB1837D8BB908956F
:10181000809172018111D2DF8091C800806C809329
:10182000C8001092C9001092CA008AB1877D8AB997
:101830008BB1837D8BB924982C980895CF93C82FB2
:1018400080917201811101C0A3DF8091C80085FFE2
:10185000FCCF8091C80080648093C800C093CE0004
:10186000CF910895809172018111A8DF8091C80005
:1018700087FD03C08AB58111F9CF8091CE0008950C
:1018800080917201811101C083DF8CE04D99FECF00
:101890004D9BFECF4D99FECF8150C1F70895109218
:1018A00072018AB188628AB952985B9A8FE891E096
:1018B0000197F1F700C0000083E090E09093CD0025
:1018C0008093CC0088E08093C9008FE68093CA00A3
:1018D000D7DFD6CF10927201249A2C988FE891E02E
:1018E0000197F1F700C000008AB188628AB9529866
:1018F00083E090E09093CD008093CC0088E08093CB
:10190000C9008FE68093CA00BBDFBACF1F93CF9385
:10191000DF93172FD82FC92F862F90DF812F8EDFCF
:101920008D2F8CDF8C2FDF91CF911F9187CF0F935D
:101930001F934091230150912401609125017091E2
:1019400026018A019B01082BC901B8011F910F9143
:10195000DDCF80E873DF86DF9AB5992321F081FF20
:10196000F8CF81E0089580E008958BE667DF8FE08F
:10197000DEDF80E263DF76DF9AB5992321F087FD11
:10198000F8CF81E0089580E00895EF92FF920F93E1
:101990001F93CF93DF93CDB7DEB728970FB6F89498
:1019A000DEBF0FBECDBF7BDF81EC48DF89E546DFC0
:1019B00082EC44DF82E042DF80EE40DF8E01075F91
:1019C0001F4FCE0101967C0188E0E7E4F1E0D701EA
:1019D00001900D928A95E1F7F80182918F012EDF37
:1019E0000E151F0589F728960FB6F894DEBF0FBEB7
:1019F000CDBFDF91CF911F910F91FF90EF90A9CFB5
:101A0000A8DF81EC1BDF80E019DF81E817DF2ADF28
:101A10008111F7CFEBCE0F931F93CF93DF93182F46
:101A2000EB01188219821A821B829FDF882341F101
:101A30008CE404DF8AE07BDF812F00DF8CE4FEDEB4
:101A40008BE075DF81E0FADE84DF8823C9F08DDF6B
:101A50008823B1F08BE6F2DE84E069DF80EAEEDE17
:101A600082E0ECDE84E2EADE8E010D5F1F4FFADEDB
:101A70008993C017D107D9F79AB581E0911101C0B8
:101A800080E0DF91CF911F910F910895CF92DF9267
:101A9000EF92FF920F931F93CF93DF936B017C0123
:101AA000EA01890162DF882361F18CE4C7DE8AE004
:101AB0003EDF83E4C3DE02301105B8F08BE6BEDE04
:101AC000C701B60123DF80EAB9DE8FEF800FB6DEF3
:101AD00084E2B4DE0C0F1D1FC017D10769F08AB570
:101AE000882351F0BFDE8993F7CF8CE0A7DEC701D2
:101AF000B6010CDFB7DE88839AB581E0911101C091
:101B000080E0DF91CF911F910F91FF90EF90DF90D8
:101B1000CF900895CF92DF92EF92FF921F93CF93D1
:101B2000DF93182F6A017B01D22F1FDFC82F882374
:101B300069F08CE483DE8AE0FADE812F7FDE8CE4BC
:101B40007DDEC701B601E2DE8D2F78DE8C2FDF91BE
:101B5000CF911F91FF90EF90DF90CF9008954F921B
:101B60005F926F927F928F929F92AF92BF92CF922D
:101B7000DF92EF92FF920F931F93CF93DF93C82FC3
:101B8000D62F942E822E2701380120FF11C0EDDEC2
:101B9000811102C0C0E043C08CE450DE8AE0C7DEA1
:101BA0008D2F4CDE8CE44ADE8BE0C1DE81E046DE28
:101BB000A114B10421F481FC20C0C1E030C0D5DE05
:101BC000882341F38CE43ADE8AE0B1DE8C2F36DEE6
:101BD0008BE634DEC301B20199DE80EA2FDE8FEF9F
:101BE0008A0D2CDE84E62ADEE601AC0CBD1CCA158B
:101BF000DB0509F3899122DEFACFB7DEC82F8823EF
:101C000009F4C8CF8CE41ADE8AE091DE892D16DE55
:101C10008CE414DEC301B20179DE80E00FDE8C2F8C
:101C2000DF91CF911F910F91FF90EF90DF90CF90B8
:101C3000BF90AF909F908F907F906F905F904F90EC
:101C40000895CF92DF92EF92FF92CF93C82F6A014F
:101C50007B018BDE882309F459C08CE4C03429F45D
:101C6000EDDD8AE064DE80E438C0C03309F03CC0BA
:101C7000E5DD8AE05CDE86E3E1DD8CE4DFDD8BE040
:101C800056DE81E0DBDD71DE882309F43FC08CE4A1
:101C9000D5DD8AE04CDE83E3D1DD8BE6CFDDC70105
:101CA000B60134DE80EACADD809121018150C6DDB3
:101CB00084E6C4DDC0E08C2F90E0209121013091BA
:101CC00022018217930720F480E0B8DDCF5FF3CFC5
:101CD0008CE4B4DD8AE02BDE80E3B0DD8CE4AEDDA5
:101CE0008BE025DE81E00BC0A9DD8AE020DE8C2FB1
:101CF000A5DD8CE4A3DDC701B60108DE80E09EDD32
:101D0000CF91FF90EF90DF90CF9023CE80E0CF91E6
:101D1000FF90EF90DF90CF900895982F9073990FD8
:101D20008F708069892B8ACDCF93DF93D82FC92FED
:101D300088E684DD8D2F82DD89E680DD8C2FDF91C2
:101D4000CF917CCD80E87ADD8DDD9AB5992321F0A5
:101D500081FFF8CF81E0089580E0089590911F0100
:101D6000892F8073880F9F709061892B67DD7ADDE2
:101D70009AB5992321F087FDF1CF81E0089580E0A5
:101D80000895EF92FF920F931F93CF93DF93CDB7F8
:101D9000DEB728970FB6F894DEBF0FBECDBF9ADD31
:101DA00082EC4CDD82E04ADD80EE48DD8E01075F8B
:101DB0001F4FCE0101967C0188E0EFE4F1E0D701EE
:101DC00001900D928A95E1F7F80182918F0136DD3D
:101DD0000E151F0589F728960FB6F894DEBF0FBEC3
:101DE000CDBFDF91CF911F910F91FF90EF90AACFC0
:101DF000A9DF80EC23DD80E021DD80E81FDD32DD1E
:101E00008111F7CF05CDEF92FF920F931F93CF93E0
:101E1000DF93EC017B018A01A1DF8823D1F080915F
:101E200020017BDF80E00ADDCE017EDFE7010E0DC1
:101E30001F1DC017D10741F08AB5882329F084E21D
:101E4000FDDC10DD8993F5CF9AB581E0911101C0D9
:101E500080E0DF91CF911F910F91FF90EF90089557
:101E6000CF92DF92FF920F931F93CF93DF936C017A
:101E70008B01EA0173DFF82E811102C0F12C22C020
:101E8000C0FF06C0F801EC0FFD1F8FEF8083219685
:101E90008091200142DF8DE1D1DCC60145DF209732
:101EA00089F05CDF882351F384E6C8DCF801808187
:101EB000C5DC84E6C3DCF8018181C0DC22970E5FBB
:101EC0001F4FEDCF8F2DDF91CF911F910F91FF907D
:101ED000DF90CF9008951F93CF93DF93182FEB01DE
:101EE0003DDF882381F08091200117DF812FA6DC60
:101EF000CE01816019DF80E6A1DC80E09FDCDF910C
:101F0000CF911F912BCF80E0DF91CF911F9108954A
:101F1000249A882311F02C9A08952C980895E8EEBD
:101F2000F0E080818B77808382E08093E900ACEEE3
:101F3000B0E08C9181608C93A1EFB0E084E38C934E
:101F40008EEE8C9380818E7780830895CF93DF937C
:101F5000C8EED0E088818B77888382E08093E900A7
:101F6000ECEEF0E08081816080837DD881E0D0DF7D
:101F7000E1EFF0E080E38083108288818E778883B0
:101F8000DF91CF910895CF93DF93C8EED0E08881A1
:101F90008B77888382E08093E900ECEEF0E080812B
:101FA0008160808334D880E0AED8E1EFF0E081E357
:101FB0008083108288818E778883DF91CF91089506
:101FC0001F93CF93DF939091F1008091F100C92F7F
:101FD000D82F1091F1008091E8008B778093E80072
:101FE00082E08093E9008091EC0081608093EC00B6
:101FF00080E08EDF209799F01EBC0DB407FEFDCF68
:102000008EB58093F1008091E80085FD06C0809137
:10201000E8008E778093E8006DD42197EBCF809114
:10202000F200882339F066D48091E8008E7780939F
:10203000E80060D4112329F081E0DF91CF911F9156
:1020400067CFDF91CF911F910895CF92DF92EF92EA
:10205000FF920F931F93CF93DF93CDB7DEB7C05896
:10206000D1090FB6F894DEBF0FBECDBF9091F1003D
:102070008091F100E92EF82E0091F10080E048DF18
:10208000CE0101966C01E114F10401F190E8E9162A
:10209000F10410F41E2D01C010E8612F70E040E043
:1020A00050E0C60103D3F60181918EBD0DB407FE49
:1020B000FDCF8EB58E2F8C198117B0F31150812F63
:1020C00090E080959095E80EF91EDDCF8091E800B4
:1020D0008B778093E800002311F081E019DFC0586E
:1020E000DF4F0FB6F894DEBF0FBECDBFDF91CF91AB
:1020F0001F910F91FF90EF90DF90CF9008952B9854
:102100002A98239822980895229A8AE18A95F1F7CD
:1021100000C023988AE18A95F1F700C022988AE1ED
:102120008A95F1F700C0239A8AE18A95F1F700C0F9
:102130000895229A239A8AE18A95F1F700C022989D
:102140008AE18A95F1F700C023988AE18A95F1F730
:1021500000C0089598E0229A87FF02C0239801C02A
:10216000239A2AE12A95F1F700C022982AE12A95BC
:10217000F1F700C0880F915071F7229A23988AE1F5
:102180008A95F1F700C022982AE12A95F1F700C05C
:1021900083B183FB882780F991E089270895282F50
:1021A000229A23983AE13A95F1F700C022988AE101
:1021B0008A95F1F700C093B193FB882780F997E0E7
:1021C000229A3AE13A95F1F700C022983AE13A951D
:1021D000F1F700C0880F1B998160915089F7229A0E
:1021E000211102C0239A01C023989AE19A95F1F730
:1021F00000C022983AE13A95F1F700C008956130A5
:1022000011F4816001C08E7FA5CF1F93CF93DF9320
:102210009091F1008091F100C92FD82F1091F10019
:102220008091E8008B778093E80082E08093E9005A
:102230008091EC0081608093EC0061DF61E0812F90
:10224000DEDF2097C9F0C130D10531F481E0A7DF8E
:102250008093F1006EDF04C080E0A1DF8093F10085
:102260008091E80085FD06C08091E8008E7780931C
:10227000E80040D32197E5CF8091F200882351F008
:1022800039D38091E8008E778093E800DF91CF9179
:102290001F9130C3DF91CF911F910895AF92BF92EC
:1022A000CF92DF92EF92FF920F931F93CF93DF9322
:1022B000CDB7DEB760970FB6F894DEBF0FBECDBFC7
:1022C0009091F1008091F100E92EF82E1091F1002B
:1022D0000091F10014DF18DF60E0812F90DFCE0164
:1022E00001966C01E114F104F1F090E1E916F104BA
:1022F00010F41E2D01C010E1612F70E040E050E0AD
:10230000C601D4D15601F50181915F0123DF8A2DE9
:102310008C198117C0F31150812F90E08095909512
:10232000E80EF91EDFCF013011F403DF01C0ECDE4F
:102330008091E8008B778093E80060960FB6F89460
:10234000DEBF0FBECDBFDF91CF911F910F91FF90E8
:10235000EF90DF90CF90BF90AF9008950F931F93B1
:10236000CF93DF9301EF10E0F8018081C8EED0E059
:1023700098819B77988392E09093E900ECEEF0E0EF
:10238000908191609083E6DEF801808388818E776A
:102390008883DF91CF911F910F9108950F931F9321
:1023A000CF93DF9301EF10E0F8018081C8EED0E019
:1023B00098819B77988392E09093E900ECEEF0E0AF
:1023C000908191609083EBDEF801808388818E7725
:1023D0008883DF91CF911F910F91089520E030E025
:1023E00090E047E050E02617D8F4FA01E21BF30B27
:1023F000DC0102C0B595A795EA95E2F7A0FF02C0FF
:102400002A9A01C02A98299ABAE6BA95F1F700C02B
:1024100029987AE67A95F1F700C02F5F3F4FE3CF16
:10242000089598E080E0880F299A2AE62A95F1F726
:1024300000C029982AE62A95F1F700C01B998F5F02
:10244000915089F7089580E063DD29988AE68A959E
:10245000F1F700C0089581E05BDD85E38A95F1F72F
:1024600000008AE68A95F1F700C080E01B9B03C05C
:102470004FDD80E008954CDD81E0089584B1897FCF
:1024800084B985B1867F85B91CBC1DBC84B18660CA
:1024900084B985B1896085B9E8EEF0E080818B77F9
:1024A000808308951F93CF93DF939091F1008091E3
:1024B000F100C92FD82F1091F1008091E8008B779F
:1024C0008093E80082E08093E9008091EC008160D5
:1024D0008093EC00209729F41092F10010C021970E
:1024E00071F09FDF8093F1008091E80085FDF7CFC8
:1024F0008091E8008E778093E800FCD1F0CF809146
:10250000F200882339F0F6D18091E8008E7780932D
:10251000E800F0D1112321F0DF91CF911F9193CFEB
:10252000DF91CF911F910895CF92DF92EF92FF92AA
:102530000F931F93CF93DF939091F1008091F1005F
:10254000092F182FC090F100D091F10081E0E0DC5C
:102550000115110579F10830110510F4C02F01C0E3
:10256000C8E06C2F70E040E050E085E691E09ED03E
:1025700085E6E82E81E0F82ED12CDD2369F0D830F5
:1025800030F46D2FF701808129DFD0E005C068E0CD
:10259000F701808123DFD850D394FFEFEF1AFF0AB1
:1025A000CD11EBCFC1508C2F90E080959095080F06
:1025B000191FCECF8091E8008B778093E800CC2064
:1025C00049F0DF91CF911F910F91FF90EF90DF9035
:1025D000CF9039CFDF91CF911F910F91FF90EF9066
:1025E000DF90CF900895CF93DF93C8EED0E088813D
:1025F0008B77888382E08093E900ECEEF0E08081C5
:102600008160808328DF8093F10074D188818E7788
:102610008883DF91CF910895CF92DF92EF92FF925E
:102620000F931F93CF93DF93EC018B017A0162D15B
:10263000811133C0E114F10439F0F70180819181F7
:10264000081B190BC80FD91FC12CD12C011511055E
:1026500019F18091E80085FD16C08091E8008E7721
:102660008093E80065D3E114F10449F0F70180811B
:102670009181C80ED91ED182C08285E00EC03AD1A8
:10268000882321F30AC089918093F1000150110938
:10269000FFEFCF1ADF0ADACF80E0DF91CF911F91F1
:1026A0000F91FF90EF90DF90CF900895CF92DF923F
:1026B000EF92FF920F931F93CF93DF93EC018B0167
:1026C0007A0118D1811133C0E114F10439F0F70116
:1026D00080819181081B190BC80FD91FC12CD12CE7
:1026E0000115110519F18091E80085FD16C0809152
:1026F000E8008B778093E8001BD3E114F10449F0E4
:10270000F70180819181C80ED91ED182C08285E0F7
:102710000EC0F0D0882321F30AC08091F100899384
:1027200001501109FFEFCF1ADF0ADACF80E0DF9105
:10273000CF911F910F91FF90EF90DF90CF90089570
:10274000CF92DF92EF92FF920F931F93CF93DF937D
:10275000EC018B017A01CED0811138C0C8010197FC
:10276000C80FD91FE114F10439F0F701808191817C
:10277000081B190BC81BD90BC12CD12C0115110535
:1027800021F18091E80085FD16C08091E8008B77EB
:102790008093E800CDD2E114F10449F0F701808183
:1027A0009181C80ED91ED182C08285E00FC0A2D00F
:1027B000882321F30BC08091F10088832197015079
:1027C0001109FFEFCF1ADF0AD9CF80E0DF91CF9157
:1027D0001F910F91FF90EF90DF90CF90089520917F
:1027E0007B0130917C012617370748F06115710590
:1027F00039F42091E8002E772093E80001C0B90158
:10280000FC0120E06115710561F18EB38823D9F1D7
:102810008530D9F18091E80083FD39C08091E800CE
:1028200082FD2BC08091E80080FFECCF8091F20008
:1028300090E06115710559F08031910540F42491C3
:102840002093F1003196615071090196F2CF21E099
:10285000409709F020E08091E8008E778093E800AF
:10286000D1CF2111D2CF09C08EB3882361F085303A
:1028700061F08091E80083FD0AC08091E80082FF4A
:10288000F3CF80E0089582E0089583E0089581E029
:1028900008958F708093E900EBEEF0E08081816015
:1028A0008083EDEEF0E010826093EC004083809135
:1028B000EE00881F8827881F08958091750187FF83
:1028C0000FC08091E80082FD04C08EB38111F9CF62
:1028D00010C08091E8008B770AC08EB3882349F03E
:1028E0008091E80080FFF9CF8091E8008E77809397
:1028F000E80008952091E4003091E50095E64091CC
:10290000EC00842F817040FF22C08091E80080FDA0
:102910001CC08EB3882399F0853099F08091EB002C
:1029200085FD11C04091E4005091E5002417350762
:1029300031F3915011F09A01E2CF84E0089582E0E2
:10294000089583E0089581E0089580E0089540911E
:10295000E80042FFDECF08953CD03ED08091D80001
:102960008F778093D8008091D80080688093D800BA
:102970008091D8008F7D8093D80084E089BD86E067
:1029800089BD09B400FEFDCF1EBA1092730142E169
:1029900060E080E07EDF8091E1008E7F8093E10047
:1029A0008091E20081608093E2008091E200886083
:1029B0008093E2008091E0008E7F8093E000089594
:1029C000E3E6F0E080818E7F808381E08093740174
:1029D000C3CF1092E20008951092E10008951F9273
:1029E0000F920FB60F9211242F933F934F935F9343
:1029F0006F937F938F939F93AF93BF93EF93FF93C7
:102A00008091E10080FF17C08091E20080FF13C039
:102A10008091E2008E7F8093E2008091E2008061ED
:102A20008093E2008091D80080628093D80019BC26
:102A30001EBA0E945C018091E10084FF2FC080914A
:102A4000E20084FF2BC084E089BD86E089BD09B423
:102A500000FEFDCF8091D8008F7D8093D8008091BB
:102A6000E1008F7E8093E1008091E2008F7E809371
:102A7000E2008091E20081608093E2008091730126
:102A8000882311F084E007C08091E30087FD02C035
:102A900081E001C083E08EBB0E945A018091E10079
:102AA00083FF21C08091E20083FF1DC08091E1007F
:102AB000877F8093E10082E08EBB1092730180914A
:102AC000E1008E7F8093E1008091E2008E7F809311
:102AD000E2008091E20080618093E20042E160E0E8
:102AE00080E0D7DE24D1FF91EF91BF91AF919F910C
:102AF0008F917F916F915F914F913F912F910F90A7
:102B00000FBE0F901F9018951F93CF93DF9300D0A7
:102B1000CDB7DEB7E5E7F1E08DE791E02091F10078
:102B200021938E179F07D1F702D18091E80083FF90
:102B3000EAC08091750190917601953009F46FC0DB
:102B400030F4913071F168F0933059F1DCC0983075
:102B500009F4A9C0993009F4B5C0963009F0D3C082
:102B60007FC0803899F0823809F0CDC0809179011A
:102B70008F70853008F0C7C08093E9008091EB002A
:102B800085FB882780F91092E90001C080E09091D0
:102B9000E800977F9093E8008093F1001092F10095
:102BA0008DC0282F2D7F09F0AEC0823009F0ABC058
:102BB0008091770181112AC0809179018F702FEF68
:102BC000280F243008F09FC08093E9002091EB008B
:102BD00020FF1CC0933021F48091EB00806214C070
:102BE0009091EB0090619093EB0021E030E0A9011F
:102BF00002C0440F551F8A95E2F74093EA001092F5
:102C0000EA008091EB0088608093EB001092E9006D
:102C10008091E800877F8093E8004FDE74C08111C7
:102C200072C0109177011F778091E3008078812B2B
:102C30008093E3008091E800877F8093E8003DDE89
:102C40008091E80080FFFCCF8091E3008068809352
:102C5000E300111102C082E001C083E08EBB53C0CB
:102C60008058823008F04FC06091790170917A01EC
:102C7000AE014F5F5F4F80917701909178010E9484
:102C80008C01BC01892B09F43EC09091E800977F2C
:102C90009093E80089819A81A2DD8091E8008B778A
:102CA0008093E80030C0803871F58091E800877F1C
:102CB0008093E800809173018093F1008091E80097
:102CC0008E77A9CF81111FC08091770190917801F3
:102CD00099270297C4F48091E800877F8093E800E9
:102CE0008091770180937301E8DD809173018111F8
:102CF00006C08091E30087FD02C081E001C084E04E
:102D00008EBB0E945E018091E80083FF0AC0809123
:102D1000E800877F8093E8008091EB0080628093D9
:102D2000EB000F900F90DF91CF911F9108950895C0
:102D3000CF938EB3882399F0C091E900CF70909122
:102D4000EC00892F817090FD80E8C82B1092E9007B
:102D50008091E80083FDD8DECF70C093E900CF9169
:102D60000895F999FECF92BD81BDF89A992780B553
:102D70000895262FF999FECF92BD81BDF89A01974B
:102D800000B4021639F01FBA20BD0FB6F894FA9AB3
:0A2D9000F99A0FBE0895F894FFCFE2
:102D9A0080010081010090010091010192011894C3
:102DAA0001219803069E0301A10100A40300013238
:102DBA00332000C00100010101010000012626366E
:102DCA00262626232333232323242C354C081A4072
:102DDA00206830222A32181289AB45CDD888FF12D2
:102DEA0089AB45CDD888FF4156524953505F4D4B68
:022DFA003200A5
:00000001FF
