:100000003BC0AEC154C053C052C051C050C04FC01D
:100010004EC04DC04CC04BC04AC049C048C047C08C
:1000200046C045C044C009021200010100A01909E0
:10003000040000000000000012011001FF00000891
:10004000C016DC050401010200010E035500530037
:1000500042006100730070001C0377007700770096
:100060002E00660069007300630068006C002E00BB
:10007000640065000403090411241FBECFE5D4E029
:10008000DEBFCDBF10E0A0E6B0E0E2E4F5E102C0E3
:1000900005900D92A636B107D9F720E0A6E6B0E0AC
:1000A00001C01D92A03BB207E1F739DA48CAA8CFD8
:1000B000CF93DF9360918E00635067FDB7C080914E
:1000C0008B00CCE0D0E0C81BD109CE56DF4F809129
:1000D0008A008D3209F096C0683009F0A5C083EC23
:1000E00080937E008AE5809362001092660088818A
:1000F000807641F0CE01F0D48F3F2FEF920709F4C4
:100100006DC075C09A81109287008981811107C0E6
:100110001092880027E830E082E090E05AC08530F5
:1001200019F490938F0042C08630D1F58B818130D5
:1001300019F488E390E004C0823049F486E290E04C
:1001400090938D0080938C0082E190E025C08330F5
:1001500009F5911109C084E790E090938D00809398
:100160008C0084E090E018C0913049F488E590E07C
:1001700090938D0080938C008CE190E00DC09230C4
:1001800049F48AE490E090938D0080938C008EE097
:1001900090E002C080E090E020E42093660027C059
:1001A000883099F0893039F49093910027E830E055
:1001B00080E090E00EC031E020E08A3009F030E0CD
:1001C000832F922F27E830E004C021E930E081E05E
:1001D00090E030938D0020938C0009C0288127FF88
:1001E00002C08E819F8120E82093660006C02E8188
:1001F0003F812817390708F4C90190936100809363
:10020000600012C08091660087FF0EC0CE015ED7ED
:100210008F3F21F48EE18093620006C0882321F095
:10022000109261001092600010928E008091620026
:1002300084FF62C080916000909161008F3F2FEF3A
:10024000920709F459C0BC018930910510F068E0AB
:1002500070E0861B970B90936100809360009091F3
:100260007E0088E8892780937E00C62F662309F4E4
:100270004EC02091660027FF07C08FE790E028D688
:10028000C82F893080F521C080918C0090918D001D
:1002900026FF09C0AFE7B0E0FC0124912D93319611
:1002A0006150D9F707C0DC01EFE7F0E02D91219311
:1002B0006150E1F72FEF2C0F30E02F5F3F4F820F9F
:1002C000931F90938D0080938C006C2F8FE790E0AC
:1002D00043D0CC5FCC3071F08FEF9FEF90936100F3
:1002E0008093600007C08FEF9FEF90936100809331
:1002F0006000CEE1C093620084E196B3937069F42C
:100300008150D9F710928F001092890006C060E0EA
:100310008FE790E021D0C4E0DFCFDF91CF91089547
:1003200085B7836085BF8BB780648BBF0895A82F86
:10033000B92F80E090E041E050EA609530E009C0DC
:100340002D9182279795879510F084279527305E09
:10035000C8F36F5FA8F30895EADF8D939D93089526
:10036000CF93CFB7CF93C395B09BE9F7B09B09C0AC
:10037000B09B07C0B09B05C0B09B03C0B09B01C041
:10038000A1C0DF93C0918B00DD27CE56DF4FB09B1D
:1003900002C0DF91EBCF2F930F931F9306B32FEF84
:1003A00000FB20F94F933F9316B34FEF012700FB5B
:1003B00021F93BE031C04E7F012F16B3216028C0E8
:1003C000102F4D7F2260000006B329C04B7F2460B0
:1003D000012F000016B32BC016B3477F28602AC038
:1003E0004F7E06B320612CC04F7D16B320622FC014
:1003F0004F7B06B3206432C0422706B349934FEFC8
:100400000000102710FB20F916B31370C9F1297FE3
:1004100091F2012700FB21F906B3237F89F23150C5
:1004200058F1102710FB22F916B3277E79F2012725
:1004300000FB23F92F7C81F206B3102710FB24F96F
:100440002F7971F200C016B3012700FB25F92F7335
:1004500059F200C006B3102710FB26F9223040F2F3
:1004600000C016B3012700FB27F9243028F64F7788
:10047000206816B30000F9CF10E41ABF002717C098
:100480003B503195C31BD04010E41ABF0881033C98
:10049000E9F00B34D9F0209189001981110F121362
:1004A000EDCF093641F10D3211F0013E39F70093DD
:1004B00090003F914F911F910F912F91DF91CAB7FB
:1004C000C6FD51CFCF91CFBFCF911895209190000D
:1004D000222379F310918E00112311F5343012F19B
:1004E00030938E0020938A0010918B003BE0311BEB
:1004F00030938B0017C000918E0001308CF40AE518
:100500003091620034FD10C000936200CEE7D0E06D
:100510000FC02795A8F45150A9F4220F0000F9CF7D
:100520004AE503C042ED01C0432FC4E1D0E032E010
:1005300017B31360C09A17BB08B320E413E05F93AE
:10054000012756E008BB279520F4515021F4220FD3
:10055000F9CF012756E000003B5A08BBD0F227959F
:1005600028F4515029F4220F0000F9CF012756E05A
:10057000279508BB20F4515021F4220FF9CF012711
:1005800056E02991332308BB21F60C7F10918F0090
:10059000110FC651D04008BB11F01093890010E430
:1005A0001ABF016017B31C7F402F4C7F5F9100C0C2
:1005B00000C008BB17BB48BB7CCF8FB9779BFECF71
:1005C0008FB10895DC01CB0121E1B695A7959795F0
:1005D00087952A95D1F72091AC002817D9F0809300
:1005E000AC00E091A900F091AA008DE40995E0919A
:1005F000A900F091AA0080E00995E091A900F0918E
:10060000AA008091AC000995E091A900F091AA00A0
:1006100080E0099408958091AB008DB98091A80085
:100620008EB90895882319F0883060F101C08AE0FE
:100630002DED32E03093AA002093A9001092A8007B
:1006400091E09093AD008B3071F028F48830B1F0D8
:10065000893091F00AC08C3021F08D3031F480E582
:100660000EC09093A80081E50AC082E58093AB009C
:1006700081E08093A800089582E501C083E580931E
:10068000AB0008952AE633E03093AA002093A90036
:10069000843081F030F4823079F0833079F480E373
:1006A0000EC0863061F020F0873041F483E007C04F
:1006B0008CE005C088E103C080E601C080EC809337
:1006C000AD00089522B79091AD0082B7821B8917C3
:1006D000E0F308951F93CF93DF93182FD8E0C0E085
:1006E00017FF02C0C39A01C0C398110FCC0FB49971
:1006F000CF5FC59AE7DFC598E5DFD15089F78C2F2A
:10070000DF91CF911F91089587B38C6287BBC29808
:10071000C598D8DFC29AD6DFC2988091A90090917F
:10072000AA008D5D924009F476DF1092AC00089526
:1007300087B38C6287BB8091A9009091AA008D5DE0
:10074000924009F468DFC29A089587B3837D87BB1E
:1007500088B3837D88BB1DB80895CF93DF93C1E232
:10076000C15051F1E091A900F091AA008CEA0995DD
:10077000E091A900F091AA0083E50995E091A90014
:10078000F091AA0080E00995D82FE091A900F0919E
:10079000AA0080E00995D33589F01DB893DFC29A8D
:1007A00091DFC2988FDF8091A9009091AA008D5DA2
:1007B0009240B1F630DFD4CF81E001C080E0DF911C
:1007C000CF910895CF92DF92EF92FF926B017C015F
:1007D000F9DE8C2D8170880F880F880FE091A900B9
:1007E000F091AA0080620995D701C60129E0B6956B
:1007F000A795979587952A95D1F7E091A900F09153
:10080000AA000995D701C601B695A7959795879532
:10081000E091A900F091AA000995E091A900F0915A
:10082000AA0080E0FF90EF90DF90CF900994CF92E4
:10083000DF92EF92FF92CF93DF936B017C01C42F85
:10084000D22FC0DE8C2D8170880F880F880FE09129
:10085000A900F091AA0080640995D701C60129E09A
:10086000B695A795979587952A95D1F7E091A90018
:10087000F091AA000995D701C601B695A79597955D
:100880008795E091A900F091AA000995E091A9004F
:10089000F091AA008C2F0995DD2321F0CF3721F4A8
:1008A0008FE0A6D080E00FC0D2B7CEE1C701B6017D
:1008B00089DF8F37B9F782B78D1B8D33B8F3D2B785
:1008C000C150A1F781E0DF91CF91FF90EF90DF90D1
:1008D000CF900895CF92DF92EF92FF92CF93DF9364
:1008E0006B017C01C42F6EDEE091A900F091AA009B
:1008F0008CE40995D701C60129E0B695A79597958F
:1009000087952A95D1F7E091A900F091AA00099561
:10091000D701C601B695A79597958795E091A9004F
:10092000F091AA000995E091A900F091AA0080E059
:100930000995CF3F19F48FE05BD010C0D2B7CEE15C
:10094000C701B6013FDF8F3F49F482B78D1B8D335E
:10095000B8F3D2B7C150A1F781E001C080E0DF91C8
:10096000CF91FF90EF90DF90CF900895CF93DF93DA
:10097000EC01E091A900F091AA0080EA0995E091CC
:10098000A900F091AA008D2F0995E091A900F0919E
:10099000AA008C2F0995E091A900F091AA0080E0AF
:1009A000DF91CF9109941F93CF93DF93D82F192F05
:1009B000C62FE091A900F091AA0080EC0995E09182
:1009C000A900F091AA00812F0995E091A900F0916A
:1009D000AA008D2F0995E091A900F091AA008C2F13
:1009E00009958EE105D080E0DF91CF911F910895A8
:1009F00090E0981739F032B722B7231B2C33E0F37D
:100A00009F5FF7CF0895BD9ABB98C39A50E217D065
:100A10005A95E9F70895AC0188E605D0842F03D0F4
:100A200089E601D0852F0FD028E030E0382780FB01
:100A3000869506D02A95D1F730FB02D000D0689475
:100A4000BB98C39A16F0C398BB9AE091AE00F091A0
:100A5000AF003197F0F7C59AE6B3E3FBE091AE0043
:100A6000F091AF003197F0F7C598089520ECE7DFDB
:100A700046F42A95E1F780E02AE1E5DF2A95E9F7D7
:100A8000DECF28E030E0DBDF869587F938272A952E
:100A9000D1F7D5DF27F9322772F3D1DFD0CFDB01D1
:100AA000742FB9DF84E2BFDFE1DF8D937A95D1F750
:100AB0000895DB01742FAFDF83EFB5DF8DE1B3DF86
:100AC00084E6B1DF8D91AFDF82E7ADDFCFDF8078E5
:100AD000D9F77A9589F70895CF93DF93EC0189814F
:100AE000813061F49A9902C085E002C0809174005F
:100AF00099DD10927300A99807DEDFC1823351F4AB
:100B00009A9902C085E002C0809174008BDDA9989B
:100B10000FDED3C1833359F4C2989A819093640055
:100B20002E813F8130936E0020936D00B3C18433DA
:100B300061F4C2988A81809364008E819F81909332
:100B40006E0080936D0082E3A5C1863419F4A998E4
:100B500027D4B3C1893411F428D4AFC18A3411F435
:100B600035D4ABC18C3419F48A813ED45AC18B344C
:100B700019F48A8159D455C1873459F461E08A81C6
:100B80007DD48E819F8190936E0080936D0086E36B
:100B900081C1883479F409D460E08A816FD48C8172
:100BA000809367008E819F8190936E0080936D008B
:100BB00085E370C18D3579F4C29A8A818093630090
:100BC0008C81809368008E819F8190936E008093CA
:100BD0006D008AE35FC18C3559F48A81809363008C
:100BE0008E819F8190936E0080936D0089E352C146
:100BF0008E3529F487D4813009F0E5C012C18230E6
:100C000011F4A3DD09C18330F9F4E091A900F0915A
:100C1000AA008A81099580937600E091A900F0915D
:100C2000AA008B81099580937700E091A900F0914B
:100C3000AA008C81099580937800E091A900F09139
:100C4000AA008D81099534C18430D1F4809173005C
:100C500081110EC08A819B81092E000CAA0BBB0B4F
:100C600080936F0090937000A0937100B093720016
:100C70008E819F8190936E0080936D0082E00AC107
:100C80008730D1F48091730081110EC08A819B81DD
:100C9000092E000CAA0BBB0B80936F009093700081
:100CA000A0937100B09372008E819F8190936E002B
:100CB00080936D0083E0EEC08530D9F44EDD8093E3
:100CC0007600882309F4AFC0C0917400CC2311F0E2
:100CD000C15001C0C9E0C33008F4A5C08C2FA2DC0C
:100CE0003CDD80937600C1508111F5CF8C2F9ADCCA
:100CF0009AC0863079F58091730081110EC08A8187
:100D00009B81092E000CAA0BBB0B80936F00909364
:100D10007000A0937100B09372003C812D81822FEE
:100D20008F7080936A00822F807F40E1849FC00192
:100D30001124830F911D90936C0080936B0020FD14
:100D4000809369008E819F8190936E0080936D00E7
:100D500081E0A0C0883001F58091730081110EC040
:100D60008A819B81092E000CAA0BBB0B80936F001C
:100D700090937000A0937100B093720010926C0079
:100D800010926B0010926A008E819F8190936E008A
:100D900080936D0084E07EC0893081F481E080938F
:100DA00073008A819B81AC81BD8180936F00909399
:100DB0007000A0937100B09372007FC08A3031F44C
:100DC0008A8180937400109276002DC08B3081F45C
:100DD0008A819B819093AF008093AE00C29ABA9AA9
:100DE00083E006DEC298A99880E102DE0CDE65C0D1
:100DF0008C30A1F480EC17DE80E015DE8AE0F8DDAF
:100E0000C29A85E0F5DDC29885E0F2DD87B3837D87
:100E100087BB88B3837D88BBA99A4FC08D3031F4DE
:100E200025DE8093760081E090E049C08E3019F491
:100E30008A81F9DD42C08F30B1F48A819B81092E0D
:100E4000000CAA0BBB0B80936F0090937000A093D3
:100E50007100B09372008E819F8190936E00809399
:100E60006D0085E017C08031D1F48A819B81092E05
:100E7000000CAA0BBB0B80936F0090937000A093A3
:100E80007100B09372008E819F8190936E00809369
:100E90006D0086E0809375008FEF9FEF10C08F3755
:100EA00061F481E0809376001092770010927800D0
:100EB0008093790084E090E002C080E090E026E733
:100EC00030E030938D0020938C00DF91CF91089516
:100ED000EF92FF920F931F93CF93C62F209175002F
:100EE0003EEF320F323008F494C0253009F496C03A
:100EF000233339F0293309F460C0263309F0DDC00B
:100F000031C020916D0030916E00462F50E02417C3
:100F1000350708F4C22FF82E8C01802F8F198C17FB
:100F200098F4E091A900F091AA0080E00995F801F9
:100F300081938F0180916D0090916E000197909345
:100F40006E0080936D00E9CF80916D0090916E00EE
:100F5000892B09F0B4C080916400882309F4AAC0E9
:100F6000C29AA8C020916D0030916E00462F50E0CB
:100F70002417350708F4C22FF82E8C01802F8F1903
:100F80008C1708F09CC080916D0090916E000197C5
:100F900090936E0080936D00892B41F481E044D2E0
:100FA000F801808313D21092750004C080E03CD217
:100FB000F80180830F5F1F4FE1CF20916D003091CA
:100FC0006E00462F50E02417350708F4C22FF82E84
:100FD0008C01802F8F198C1770F480D2F8018193C7
:100FE0008F0180916D0090916E00019790936E003B
:100FF00080936D00EECF80916D0090916E00892BF3
:1010000009F05DC080916300882309F453C077D252
:1010100051C08C017C01E60EF11C40C0462FBC0182
:1010200080916F00909170003ADD80916F009091F7
:101030007000A0917100B09172008C0F911DA11DE4
:10104000B11D80936F0090937000A0937100B093D6
:10105000720035C080917500823021F560916F007B
:10106000709170008091710090917200ABDBF8017B
:10107000808380916F0090917000A0917100B09179
:1010800072000196A11DB11D80936F0090937000B6
:10109000A0937100B09372000F5F1F4F0E151F05D4
:1010A000C9F606C080916F00909170005FDCDFCFC1
:1010B000C83028F41092750002C08FEF01C08C2F49
:1010C000CF911F910F91FF90EF900895EF92FF92B3
:1010D0000F931F93CF93C62F20917500213031F4C9
:1010E0008C017C01EC0EF11CC0E00BC12430C1F37B
:1010F000263009F4A6C02233B1F12A3309F462C0C4
:10110000253309F044C120916D0030916E00462FC7
:1011100050E02417350708F4C22FF82E8C01802FD9
:101120008F198C1770F4D8018D918D015DD180914C
:101130006D0090916E00019790936E0080936D000A
:10114000EECF80916D0090916E00892B11F080E0C0
:1011500021C180916700813011F438D101C025D1BF
:101160001092750016C120916D0030916E00462FCF
:1011700050E02417350708F4C22FF82E8C01802F79
:101180008F198C1790F4E091A900F091AA00D80172
:101190008D918D01099580916D0090916E00019760
:1011A00090936E0080936D00EACF80916D009091D6
:1011B0006E00892B61F680916400882309F4E9C0F0
:1011C000C29AE7C020916D0030916E00462F50E02A
:1011D0002417350708F4C22FF82E8C01802F8F19A1
:1011E0008C1708F560916800662389F0683030F448
:1011F000F801808149D11092680009C068E0D801E7
:101200008C9142D1809168008850809368008091D1
:101210006D0090916E00019790936E0080936D0029
:101220000F5F1F4FDBCF80916D0090916E00892B77
:1012300009F08DCF80916300882309F491CF5FD1AD
:101240008FCF462FBC0180916F009091700031DCF0
:1012500080916F0090917000A0917100B091720028
:101260008C0F911DA11DB11D80936F009093700094
:10127000A0937100B093720080916D0090916E0008
:101280008C1B910990936E0080936D00892B09F45B
:1012900067CF5DCF80917500813009F051C02091FA
:1012A0006B0030916C0060916F00709170008091C4
:1012B000710090917200232B41F521E0F8014081EB
:1012C000B6DA80916D0090916E00019790936E0058
:1012D00080936D00892BE1F180916F0090917000F7
:1012E000A0917100B09172000196A11DB11D809373
:1012F0006F0090937000A0937100B09372000F5F25
:101300001F4F0E151F0531F640C020E0D8014C914B
:101310008EDA809169008150809369008111D1CF6C
:1013200060916F00709170008091710090917200D7
:10133000F8014081CFDA80916B0080936900C1CFC2
:10134000D8016C9180916F00909170002CDBB9CF27
:101350001092750080916A0081FF15C0809169002C
:1013600090E020916B0030916C008217930759F048
:1013700060916F0070917000809171009091720087
:10138000F8014081A7DAC1E0A7CF8C2F03C08FEF0F
:1013900001C081E0CF911F910F91FF90EF900895D0
:1013A000C498C398BC98BB980895BB9A84E18A9569
:1013B000F1F7BC9884E18A95F1F7BB9884E18A95AE
:1013C000F1F7BC9A84E18A95F1F70895BB9ABC9A2B
:1013D00084E18A95F1F7BB9884E18A95F1F7BC988E
:1013E00084E18A95F1F7089598E0BB9A87FF02C0DF
:1013F000BC9801C0BC9A24E12A95F1F7BB9824E17E
:101400002A95F1F7880F915081F7BB9ABC9884E137
:101410008A95F1F7BB9824E12A95F1F786B3829576
:10142000817091E089270895282FBB9ABC9834E1F8
:101430003A95F1F7BB9884E18A95F1F796B394FB5E
:10144000882780F997E0BB9A34E13A95F1F7BB9889
:1014500034E13A95F1F7880FB4998160915099F78A
:10146000BB9A211102C0BC9A01C0BC9894E19A9524
:10147000F1F7BB9834E13A95F1F70895613011F432
:10148000816001C08E7FB0CFEF92FF920F931F93C8
:10149000CF93DF9307E010E0061B1109C7E0D0E00F
:1014A000E82EF12CC017D10791F0C7010C2E02C015
:1014B000959587950A94E2F780FF02C0C39A01C010
:1014C000C398C59AFFD8C598FDD82197EBCFDF9177
:1014D000CF911F910F91FF90EF900895CF93DF93DD
:1014E000D8E0C0E0CC0FC59AEDD8C598EBD8B49938
:1014F000CF5FD150B9F78C2FDF91CF910895C2986B
:10150000C598E0C8C29A88E28A95F1F7DBD8B49B07
:1015100003C0C29880E00895C29881E0089512BA8D
:1015200018BA8BEF81BB8FEF87BB17BA83E084BB00
:101530009EEF95BB83BFF4D67894BAD5FECFF894CE
:02154000FFCFDB
:06154200FFFF5A01010049
:00000001FF
